:020000020000FC
:1000000012C011C010C00FC00EC00DC00CC00BC07C
:100010000AC009C008C007C006C005C004C003C0AC
:1000200002C001C000C01FE51DBF14E01EBF12E0EA
:1000300017BB1CE314BB1FEF11BB15EC18BB10E082
:1000400015BB10E012BB1BD29AD2C19A5527662469
:1000500022244FD3B29B8DC1B69BA7C1B79BF3C1DE
:10006000B09BCDC190EAD9D282E0F5D291EAD0D24C
:100070000894F1D2182F107F129510937900182F41
:100080001F7010937A00000090EAC7D283E0E3D299
:1000900091EABED20894DFD2182F107F12951093E8
:1000A0007700182F1F7010937800000090EAB5D2E7
:1000B00084E0D1D291EAACD20894CDD2182F129517
:1000C000137010937500182F1F70109376000000A6
:1000D00090EAA3D285E0BFD291EA9AD20894BBD22B
:1000E000182F1295137010937C00182F1F70109307
:1000F0007B00000090EA91D286E0ADD291EA88D2EE
:100100000894A9D2182F1295117010937E00182F01
:100110001F7010937D00182F12951F701695109365
:100120007F00000010E0912EE4D111E0A12EEDD16E
:100130001091750009D21EE1912EDBD111E0A12EA4
:10014000E4D11091760000D217E3D3D113E0DDD1D2
:1001500010917900DFD110917A00DCD116E4912E54
:10016000C8D111E0A12ED1D110917700EDD114E6C4
:10017000912EBFD111E0A12EC8D110917800E4D109
:100180001EE1B7D117E0C1D110917C00C3D110910D
:100190007B00C0D110E2BED10AE020917E00109118
:1001A0007D0020FD100F77241130B1F01230A9F03E
:1001B0001330A1F0143099F0153091F0163089F019
:1001C000173081F0183079F0193071F01A3069F079
:1001D0001B3061F01C3059F00BC017C023C02FC07A
:1001E0003BC047C053C05FC06BC077C083C08FC0E7
:1001F000E4E1F7E010E0E70DF11FC895102D17318D
:1002000019F088D17394F4CF8EC0EEE1F7E010E0DE
:10021000E70DF11FC895102D173119F07BD173949C
:10022000F4CF81C0E8E2F7E010E0E70DF11FC895D8
:10023000102D173119F06ED17394F4CF74C0E2E32E
:10024000F7E010E0E70DF11FC895102D173119F0F8
:1002500061D17394F4CF67C0ECE3F7E010E0E70DF1
:10026000F11FC895102D173119F054D17394F4CFA4
:100270005AC0E6E4F7E010E0E70DF11FC895102D35
:10028000173119F047D17394F4CF4DC0E0E5F7E092
:1002900010E0E70DF11FC895102D173119F03AD174
:1002A0007394F4CF40C0EAE5F7E010E0E70DF11FEA
:1002B000C895102D173119F02DD17394F4CF33C098
:1002C000E4E6F7E010E0E70DF11FC895102D1731B7
:1002D00019F020D17394F4CF26C0EEE6F7E010E0D9
:1002E000E70DF11FC895102D173119F013D1739434
:1002F000F4CF19C0E8E7F7E010E0E70DF11FC8956B
:10030000102D173119F006D17394F4CF0CC0E2E828
:10031000F7E010E0E70DF11FC895102D173119F027
:10032000F9D07394F4CF14E7E4D017E0EED0109135
:100330007F00BFE8ADE81030B1F0B2E8A2E91130BB
:1003400091F0B1E9A0E9123071F0B7E9A2E91330F8
:1003500051F0BFE8A2E9143031F0B1E9A1E815305D
:1003600011F0B2E8A1E91B2FD5D01A2FD3D0AED10E
:1003700071CE00917B0020917C0003950A3009F03A
:1003800007C000272395233009F002C00027222749
:10039000102F23702295122B90EA3FD185E05BD17C
:1003A000812F59D171D192D155CE00917D000F701E
:1003B00020917E002F7003950A3009F00DC00027B0
:1003C0002395213009F008C001E0222710917F0019
:1003D0001395177010937F0010917F00177012957E
:1003E000110F107E102B21702295122B90EA15D13F
:1003F00086E031D1812F2FD147D168D12BCE00910A
:1004000078002091770003950A3009F007C0002793
:100410002395263009F002C000272227102F2295AD
:10042000207F122B90EAF9D083E015D1812F13D1D0
:100430002BD14CD190EAF1D082E00DD180E00BD1EC
:1004400023D144D107CE0091760020917500039509
:100450000A3009F007C000272395223009F002C0B6
:1004600000272227102F2295207F122B90EAD5D02B
:1004700084E0F1D0812FEFD007D128D1EBCDAA981D
:10048000AB98AC98AD9A12EE1FD012D112EA1CD0E4
:1004900010EA1AD018EC18D015E216D011E814D0D2
:1004A0001FE212D01FE210D018EF0ED011E00CD0D6
:1004B00010E40AD015EA08D017D114EA05D016EADC
:1004C00003D01FEA01D0089512BBAA98AB98AD984B
:1004D000AC9A6AD0AC98AD9A67D0089512BBAA9A2C
:1004E000AB98AD98AC9A60D0AC98AA98AD9A5CD015
:1004F000089524E0120F1F9312951F701061E4DF1E
:100500001F911F701060E0DF0895106BDDDF08950C
:1005100008950895ECE8F7E022270027512E150DE5
:10052000201F150D201F150D201F150D201F150D47
:10053000201FE10FF21F26E00024C8953196102DF0
:10054000CDDF2A95D1F70895512EECEFFCE008E7B6
:100550002227109FE00DF11D28E100270024C895F7
:100560003196102DBBDF2A95D1F71A2D0395100F68
:10057000CCDF192DBEDF28E1053089F70895442727
:10058000772410E0B6DF172DC0DF44271127A6DF40
:1005900043954438D9F77394172D183091F710E02C
:1005A000A8DF10E0B2DF089515E01A95F1F708957D
:1005B00017E2112E10E1012E18D01093660013E0FF
:1005C000112E18EE012E11D010936700112414E69D
:1005D000012E0BD01093680011241AE0012E05D0D3
:1005E00020926A001093690008951127311438F0A1
:1005F00011F4201420F0201831081395F7CF089536
:1006000072E07A95F1F7089571E07A95F1F708951F
:10061000A09AA198F5DFA098F7DF892FA19AF4DFBF
:100620000894881F01C0880F59F0A09A18F40000A0
:10063000A19802C0A19A00C0E3DFA098E1DFF3CF48
:10064000A09AA198DDDFA098989BFECF88949999F5
:100650000894D6DF089590FFE3CF661F81E0A09A4B
:10066000CFDFA098CDDF889499990894881FB8F7B8
:10067000A09A679510F4A19801C0A19AC1DFA09833
:10068000989BFECFBDDF0895A09AA19AB9DFA098EC
:10069000BBDFA198B5DF089566270895C8EFD0E0C5
:1006A0002197F1F70895C1EFD1E02197F1F708956F
:1006B00015E02FEF2A95F1F71A95D9F708951FE065
:1006C0002FEF2A95F1F71A95D9F7089516E42FEF31
:1006D0002A95F1F71A95D9F7089514E62FEF2A9580
:1006E000F1F71A95D9F7089514E6DDDF1A95E9F7C1
:1006F000089518ECD8DF1A95E9F70895ACEBB2E04D
:10070000D2DF1197E9F70895A8EEB3E0CCDF119797
:10071000E9F708959FADA2A0B0BF2020201794A5AF
:10072000A2B0A0ABBF2020178CA0B0B2A020202088
:10073000201780AFB0A5ABBF202020178CA0BF2012
:1007400020202020201788BEADBF20202020201789
:1007500088BEABBF20202020201780A2A3B3B1B257
:10076000A020201791A5ADB2BFA1B0BF20178EAABF
:10077000B2BFA1B0BF2020178DAEBFA1B0BF202057
:10078000201784A5AAA0A1B0BF202017003E514980
:10079000453E0000427F4000004261514946002131
:1007A00041454B31001814127F100027454545394B
:1007B000003C4A49493000030171090700364949A4
:1007C000493600064949291E000000000000FFFFCD
:1007D000FFFFFFFFFFFFFFFFFFFFFFFFFFFFFFFF29
:1007E000FFFFFFFFFFFF00000C0C0000007F3E1C1E
:1007F000080000081C3E7F000006050006050005F5
:100800000300050300446677664400113377331113
:10081000001C3E3E3E1C00103854101F0004027F96
:1008200002040010207F2010001010543810001017
:10083000385410100040444A51400040514A44404E
:100840000020303830200008183818080000000058
:1008500000000000005F0000000007000700001417
:100860007F147F1400242A7F2A1200231308646255
:1008700000364955225000000503000000001C22EC
:100880004100000041221C00000A041F040A000865
:10089000083E08080000503000000008080808085A
:1008A000000060600000002010080402003E514972
:1008B000453E0000427F4000004261514946002110
:1008C00041454B31001814127F100027454545392A
:1008D000003C4A4949300003017109070036494983
:1008E000493600064949291E00003636000000003E
:1008F0005636000000081422410000141414141489
:100900000000412214080002015109060032497911
:10091000413E007E0909097E007F49494936003E73
:1009200041414122007F4141221C007F4949494108
:10093000007F09090901003E4149497A007F080802
:10094000087F0000417F4100002040413F01007FBF
:1009500008142241007F40404040007F020C027F8B
:10096000007F0408107F003E4141413E007F09099D
:100970000906003E4151215E007F091929460046C3
:10098000494949310001017F0101003F4040403F9A
:10099000001F2040201F003F4038403F00631408E4
:1009A0001463000708700807006151494543007F40
:1009B00041410000000204081020000041417F0076
:1009C00000040201020400404040404000000102D7
:1009D0000400002054545478007F484444380038C0
:1009E0004444442000384444487F00385454541848
:1009F00000087E090102000C5252523E007F08049A
:100A000004780000447D4000002040443D00007F09
:100A1000102844000000417F4000007C0418047846
:100A2000007C08040478003844444438007C1414E2
:100A3000140800081414187C007C0804040800083A
:100A40005454542000043F444020003C4040207C4B
:100A5000001C2040201C003C4038403C0044281032
:100A60002844000C5050503C004464544C44000056
:100A7000083641000000007F0000000041360800F9
:100A8000000804080408FFFFFFFFFFFF007E0909BC
:100A9000097E007F45454539007F49494936007F39
:100AA0000101010300C07E417FC0007F49494941E7
:100AB0000077087F0877004149494936007F1008D0
:100AC000047F007E2013087E007F0814224100402E
:100AD0003C02017F007F020C027F007F0808087F34
:100AE000003E4141413E007F0101017F007F090935
:100AF0000906003E414141220001017F010100073A
:100B00004848483F001C227F221C006314081463DD
:100B1000003F20203F60000F0808087F007F407ED4
:100B2000407F003F203C207F00017F484830007F0D
:100B30004830007F007F4848483000224949493EFC
:100B4000007F083E413E00462919097F0020545489
:100B50005478003C4A4A4930007C54542800007CB8
:100B600004040C0000C078447CC00038545454186D
:100B7000006C107C106C004454542800007C201041
:100B8000087C007C2112097C007C10284400007045
:100B900008047C00007C0810087C007C1010107C8D
:100BA000003844444438007C0404047C007C141461
:100BB00014080038444444200004047C0404000C5D
:100BC0005050503C003048FC483000442810284425
:100BD000007C40407CC0000C1010107C007C407CED
:100BE000407C007C407C40FC00047C505020007C19
:100BF0005020007C007C5050200000284454543881
:100C0000007C1038443800085434147C00FCFE0783
:100C10000383836367FEFC00003F7FE6C6C1C1C05B
:100C2000E07F3F00000000181CFFFF0000000000F4
:100C3000000000C0C0FFFFC0C000000000060703A6
:100C400003030383C7FE7C0000E0F0F8DCCEC7C3DB
:100C5000C1C0C000000C0E8783838383C7FE3C00A5
:100C6000003070E1C1C1C1C1E37F3E00000000C09F
:100C7000F03C0E06FFFF000000060707060606060A
:100C8000FFFF0600007EFFC3C3C3C3C3C3830300CB
:100C900000C0C0C0C0C0C0C0E17F3F0000FEFFC3B5
:100CA000C3C3C3C3C3870600007FFFE1C0C0C0C089
:100CB000E17F3F0000030303030303C3F33F0F007F
:100CC00000000000F0FC0F0300000000007CFEC7E5
:100CD00083838383C7FE7C00003E7FE3C1C1C1C123
:100CE000E37F3E00007CFEC783838383C7FEFC0056
:100CF000003070E1C1C1C1C1E17F3F00FEFDFBF7E3
:100D0000EFDF3F3F3F3F3F3F3F3F3F3F3F3FDFEF53
:100D1000F7FBFDFEFFFFFFFFFFFF000000000000EC
:100D2000000000000000FFFFFFFFFFFFEFEFEFC735
:100D300083010000000000000000000000000183AB
:100D4000C7EFEFEFFFFFFFFFFFFF00000000000015
:100D5000000000000000FFFFFFFFFFFF7FBFDFEF8D
:100D6000F7FBFCFCFCFCFCFCFCFCFCFCFCFCFBF7CF
:100D7000EFDFBF7F00000000000000000000000067
:100D8000000000000000C0E0F0F8FCFE00000000E1
:100D90000000000000000000000000000000FFFF55
:100DA000FFFFFFFF00000000000000000000000047
:100DB0000000000000007DBBD7EFEFEF0000000057
:100DC0000000000000000000000000000000FFFF25
:100DD000FFFFFFFF00000000000000000000000017
:100DE00000000000000003070F1F3F7F0001030702
:100DF0000F1F3F3F3F3F3F3F3F3F3F3F3F3FDFEF03
:100E0000F7FBFDFE000000000000000000000000F5
:100E1000000000000000FFFFFFFFFFFFE0E0E0D068
:100E2000B87CFEFEFEFEFEFEFEFEFEFEFEFE7D3BEE
:100E3000170F0F0FFFFFFFFFFFFF00000000000074
:100E40000000000000000000000000007FBFDFEF96
:100E5000F7FBFCFCFCFCFCFCFCFCFCFCFCFCF8F0E8
:100E6000E0C08000000103070F1F3F3F3F3F3F3FAF
:100E70003F3F3F3F3F3FDFEFF7FBFDFE000000003D
:100E80000000000000000000000000000000FFFF64
:100E9000FFFFFFFF00000010387CFEFEFEFEFEFE9E
:100EA000FEFEFEFEFEFE7DBBD7EFEFEF0000000072
:100EB0000000000000000000000000000000FFFF34
:100EC000FFFFFFFF0080C0E0F0F8FCFCFCFCFCFC36
:100ED000FCFCFCFCFCFCFBF7EFDFBF7FFEFCF8F04A
:100EE000E0C0000000000000000000000000C0E0C2
:100EF000F0F8FCFEFFFFFFFFFFFF00000000000016
:100F0000000000000000FFFFFFFFFFFF0F0F0F17A3
:100F10003B7DFEFEFEFEFEFEFEFEFEFEFEFE7DBBF9
:100F2000D7EFEFEF0000000000000000000000001D
:100F3000000000000000FFFFFFFFFFFF00000000B7
:100F40000000000000000000000000000000030797
:100F50000F1F3F7FFEFDFBF7EFDF3F3F3F3F3F3F70
:100F60003F3F3F3F3F3F1F0F07030100FFFFFFFFD2
:100F7000FFFF000000000000000000000000000073
:100F8000000000000F0F0F173B7DFEFEFEFEFEFE71
:100F9000FEFEFEFEFEFE7CB8D0E0E0E000000000B9
:100FA0000000000000000000000000000000FFFF43
:100FB000FFFFFFFF0080C0E0F0F8FCFCFCFCFCFC45
:100FC000FCFCFCFCFCFCFBF7EFDFBF7FFEFDFBF74E
:100FD000EFDF3F3F3F3F3F3F3F3F3F3F3F3F1F0F21
:100FE00007030100FFFFFFFFFFFF000000000000FC
:100FF000000000000000000000000000EFEFEFD74D
:10100000BB7DFEFEFEFEFEFEFEFEFEFEFEFE7CB88C
:10101000D0E0E0E0FFFFFFFFFFFF00000000000066
:10102000000000000000FFFFFFFFFFFF7FBFDFEFBA
:10103000F7FBFCFCFCFCFCFCFCFCFCFCFCFCFBF7FC
:10104000EFDFBF7F000103070F1F3F3F3F3F3F3FE1
:101050003F3F3F3F3F3FDFEFF7FBFDFE000000005B
:101060000000000000000000000000000000FFFF82
:10107000FFFFFFFF00000000000000000000000074
:101080000000000000007DBBD7EFEFEF0000000084
:101090000000000000000000000000000000FFFF52
:1010A000FFFFFFFF00000000000000000000000044
:1010B00000000000000003070F1F3F7FFEFDFBF74D
:1010C000EFDF3F3F3F3F3F3F3F3F3F3F3F3FDFEF90
:1010D000F7FBFDFEFFFFFFFFFFFF00000000000029
:1010E000000000000000FFFFFFFFFFFFEFEFEFD762
:1010F000BB7DFEFEFEFEFEFEFEFEFEFEFEFE7DBB98
:10110000D7EFEFEFFFFFFFFFFFFF00000000000041
:10111000000000000000FFFFFFFFFFFF7FBFDFEFC9
:10112000F7FBFCFCFCFCFCFCFCFCFCFCFCFCFBF70B
:10113000EFDFBF7FFEFDFBF7EFDF3F3F3F3F3F3F6E
:101140003F3F3F3F3F3FDFEFF7FBFDFEFFFFFFFF6E
:10115000FFFF000000000000000000000000FFFF93
:10116000FFFFFFFF0F0F0F173B7DFEFEFEFEFEFE93
:10117000FEFEFEFEFEFE7DBBD7EFEFEF000000009F
:101180000000000000000000000000000000FFFF61
:10119000FFFFFFFF0080C0E0F0F8FCFCFCFCFCFC63
:0C11A000FCFCFCFCFCFCFBF7EFDFBF7F5D
:00000001FF
